{
  "contractName": "Helloworld",
  "abi": [
    {
      "inputs": [
        {
          "internalType": "string",
          "name": "_message",
          "type": "string"
        }
      ],
      "stateMutability": "nonpayable",
      "type": "constructor"
    },
    {
      "inputs": [],
      "name": "message",
      "outputs": [
        {
          "internalType": "string",
          "name": "",
          "type": "string"
        }
      ],
      "stateMutability": "view",
      "type": "function"
    },
    {
      "inputs": [],
      "name": "owner",
      "outputs": [
        {
          "internalType": "address",
          "name": "",
          "type": "address"
        }
      ],
      "stateMutability": "view",
      "type": "function"
    },
    {
      "inputs": [],
      "name": "hello",
      "outputs": [
        {
          "internalType": "string",
          "name": "",
          "type": "string"
        }
      ],
      "stateMutability": "view",
      "type": "function"
    },
    {
      "inputs": [
        {
          "internalType": "string",
          "name": "_message",
          "type": "string"
        }
      ],
      "name": "setMessage",
      "outputs": [],
      "stateMutability": "nonpayable",
      "type": "function"
    }
  ],
  "bytecode": "0x60806040523480156200001157600080fd5b5060405162000a0f38038062000a0f8339818101604052810190620000379190620001c6565b80600090805190602001906200004f92919062000098565b5033600160006101000a81548173ffffffffffffffffffffffffffffffffffffffff021916908373ffffffffffffffffffffffffffffffffffffffff160217905550506200039b565b828054620000a690620002ac565b90600052602060002090601f016020900481019282620000ca576000855562000116565b82601f10620000e557805160ff191683800117855562000116565b8280016001018555821562000116579182015b8281111562000115578251825591602001919060010190620000f8565b5b50905062000125919062000129565b5090565b5b80821115620001445760008160009055506001016200012a565b5090565b60006200015f620001598462000240565b62000217565b9050828152602081018484840111156200017e576200017d6200037b565b5b6200018b84828562000276565b509392505050565b600082601f830112620001ab57620001aa62000376565b5b8151620001bd84826020860162000148565b91505092915050565b600060208284031215620001df57620001de62000385565b5b600082015167ffffffffffffffff8111156200020057620001ff62000380565b5b6200020e8482850162000193565b91505092915050565b60006200022362000236565b9050620002318282620002e2565b919050565b6000604051905090565b600067ffffffffffffffff8211156200025e576200025d62000347565b5b62000269826200038a565b9050602081019050919050565b60005b838110156200029657808201518184015260208101905062000279565b83811115620002a6576000848401525b50505050565b60006002820490506001821680620002c557607f821691505b60208210811415620002dc57620002db62000318565b5b50919050565b620002ed826200038a565b810181811067ffffffffffffffff821117156200030f576200030e62000347565b5b80604052505050565b7f4e487b7100000000000000000000000000000000000000000000000000000000600052602260045260246000fd5b7f4e487b7100000000000000000000000000000000000000000000000000000000600052604160045260246000fd5b600080fd5b600080fd5b600080fd5b600080fd5b6000601f19601f8301169050919050565b61066480620003ab6000396000f3fe608060405234801561001057600080fd5b506004361061004c5760003560e01c806319ff1d2114610051578063368b87721461006f5780638da5cb5b1461008b578063e21f37ce146100a9575b600080fd5b6100596100c7565b6040516100669190610440565b60405180910390f35b61008960048036038101906100849190610394565b610159565b005b6100936101cd565b6040516100a09190610425565b60405180910390f35b6100b16101f3565b6040516100be9190610440565b60405180910390f35b6060600080546100d690610548565b80601f016020809104026020016040519081016040528092919081815260200182805461010290610548565b801561014f5780601f106101245761010080835404028352916020019161014f565b820191906000526020600020905b81548152906001019060200180831161013257829003601f168201915b5050505050905090565b600160009054906101000a900473ffffffffffffffffffffffffffffffffffffffff1673ffffffffffffffffffffffffffffffffffffffff163373ffffffffffffffffffffffffffffffffffffffff16146101b357600080fd5b80600090805190602001906101c9929190610281565b5050565b600160009054906101000a900473ffffffffffffffffffffffffffffffffffffffff1681565b6000805461020090610548565b80601f016020809104026020016040519081016040528092919081815260200182805461022c90610548565b80156102795780601f1061024e57610100808354040283529160200191610279565b820191906000526020600020905b81548152906001019060200180831161025c57829003601f168201915b505050505081565b82805461028d90610548565b90600052602060002090601f0160209004810192826102af57600085556102f6565b82601f106102c857805160ff19168380011785556102f6565b828001600101855582156102f6579182015b828111156102f55782518255916020019190600101906102da565b5b5090506103039190610307565b5090565b5b80821115610320576000816000905550600101610308565b5090565b600061033761033284610487565b610462565b9050828152602081018484840111156103535761035261060e565b5b61035e848285610506565b509392505050565b600082601f83011261037b5761037a610609565b5b813561038b848260208601610324565b91505092915050565b6000602082840312156103aa576103a9610618565b5b600082013567ffffffffffffffff8111156103c8576103c7610613565b5b6103d484828501610366565b91505092915050565b6103e6816104d4565b82525050565b60006103f7826104b8565b61040181856104c3565b9350610411818560208601610515565b61041a8161061d565b840191505092915050565b600060208201905061043a60008301846103dd565b92915050565b6000602082019050818103600083015261045a81846103ec565b905092915050565b600061046c61047d565b9050610478828261057a565b919050565b6000604051905090565b600067ffffffffffffffff8211156104a2576104a16105da565b5b6104ab8261061d565b9050602081019050919050565b600081519050919050565b600082825260208201905092915050565b60006104df826104e6565b9050919050565b600073ffffffffffffffffffffffffffffffffffffffff82169050919050565b82818337600083830152505050565b60005b83811015610533578082015181840152602081019050610518565b83811115610542576000848401525b50505050565b6000600282049050600182168061056057607f821691505b60208210811415610574576105736105ab565b5b50919050565b6105838261061d565b810181811067ffffffffffffffff821117156105a2576105a16105da565b5b80604052505050565b7f4e487b7100000000000000000000000000000000000000000000000000000000600052602260045260246000fd5b7f4e487b7100000000000000000000000000000000000000000000000000000000600052604160045260246000fd5b600080fd5b600080fd5b600080fd5b600080fd5b6000601f19601f830116905091905056fea2646970667358221220a5e6eb01ebc9e252981d562e536dec4c547fd5ffbab405d70b510efb550721e464736f6c63430008060033",
  "immutableReferences": {},
  "source": "// SPDX-License-Identifier: GPL-3.0\npragma solidity ^0.8.6;\n\ncontract Helloworld {\n    \n    string public message;  \n    address public owner;\n    constructor(string memory _message){\n        message=_message;\n        owner= msg.sender;\n    }\n\n    function hello() public view  returns (string memory) {\n        return message;\n    }\n    function setMessage(string memory _message) public {\n        //require(msg.value>1 ether,\"must pay more than 1 ether\");\n        require(msg.sender==owner);\n        message=_message;\n    }\n}",
  "sourcePath": "/Users/coder.ch/02.Project/Blockchain-playground/04.Truffle/contracts/Helloworld.sol",
  "compiler": {
    "name": "solc",
    "version": "0.8.6+commit.11564f7e.Emscripten.clang"
  },
  "schemaVersion": "3.4.2",
  "updatedAt": "2021-07-25T00:16:10.591Z",
  "devdoc": {
    "kind": "dev",
    "methods": {},
    "version": 1
  },
  "userdoc": {
    "kind": "user",
    "methods": {},
    "version": 1
  }
}