{
  "contractName": "Paidvoter",
  "abi": [
    {
      "inputs": [],
      "stateMutability": "nonpayable",
      "type": "constructor"
    },
    {
      "anonymous": false,
      "inputs": [
        {
          "indexed": false,
          "internalType": "int8",
          "name": "id",
          "type": "int8"
        },
        {
          "indexed": false,
          "internalType": "string",
          "name": "name",
          "type": "string"
        },
        {
          "indexed": false,
          "internalType": "int32",
          "name": "votenumber",
          "type": "int32"
        },
        {
          "indexed": false,
          "internalType": "address",
          "name": "votepaidbyaddress",
          "type": "address"
        },
        {
          "indexed": false,
          "internalType": "uint256",
          "name": "votedate",
          "type": "uint256"
        }
      ],
      "name": "VoteCandidate",
      "type": "event"
    },
    {
      "inputs": [
        {
          "internalType": "int8",
          "name": "",
          "type": "int8"
        }
      ],
      "name": "candidates",
      "outputs": [
        {
          "internalType": "int8",
          "name": "id",
          "type": "int8"
        },
        {
          "internalType": "string",
          "name": "name",
          "type": "string"
        },
        {
          "internalType": "int32",
          "name": "votenumber",
          "type": "int32"
        }
      ],
      "stateMutability": "view",
      "type": "function",
      "constant": true
    },
    {
      "inputs": [],
      "name": "owner",
      "outputs": [
        {
          "internalType": "address",
          "name": "",
          "type": "address"
        }
      ],
      "stateMutability": "view",
      "type": "function",
      "constant": true
    },
    {
      "inputs": [],
      "name": "voteCountCandidate1",
      "outputs": [
        {
          "internalType": "int32",
          "name": "",
          "type": "int32"
        }
      ],
      "stateMutability": "view",
      "type": "function",
      "constant": true
    },
    {
      "inputs": [],
      "name": "voteCountCandidate2",
      "outputs": [
        {
          "internalType": "int32",
          "name": "",
          "type": "int32"
        }
      ],
      "stateMutability": "view",
      "type": "function",
      "constant": true
    },
    {
      "inputs": [
        {
          "internalType": "int8",
          "name": "_id",
          "type": "int8"
        },
        {
          "internalType": "address",
          "name": "_voter",
          "type": "address"
        }
      ],
      "name": "purchaseVoteCandidate",
      "outputs": [],
      "stateMutability": "payable",
      "type": "function",
      "payable": true
    },
    {
      "inputs": [],
      "name": "getBalanceSmartContract",
      "outputs": [
        {
          "internalType": "uint256",
          "name": "",
          "type": "uint256"
        }
      ],
      "stateMutability": "view",
      "type": "function",
      "constant": true
    },
    {
      "inputs": [],
      "name": "deposit",
      "outputs": [],
      "stateMutability": "payable",
      "type": "function",
      "payable": true
    },
    {
      "inputs": [
        {
          "internalType": "uint256",
          "name": "widthrawAmount",
          "type": "uint256"
        }
      ],
      "name": "widthraw",
      "outputs": [],
      "stateMutability": "nonpayable",
      "type": "function"
    }
  ],
  "bytecode": "0x608060405260008060146101000a81548163ffffffff021916908360030b63ffffffff160217905550600a600060186101000a81548163ffffffff021916908360030b63ffffffff1602179055503480156200005a57600080fd5b50336000806101000a81548173ffffffffffffffffffffffffffffffffffffffff021916908373ffffffffffffffffffffffffffffffffffffffff16021790555060405180606001604052806000800b81526020016040518060400160405280600381526020017f43415400000000000000000000000000000000000000000000000000000000008152508152602001600060030b815250600160008060000b815260200190815260200160002060008201518160000160006101000a81548160ff021916908360000b60ff16021790555060208201518160010190805190602001906200014a9291906200025d565b5060408201518160020160006101000a81548163ffffffff021916908360030b63ffffffff1602179055509050506040518060600160405280600160000b81526020016040518060400160405280600381526020017f444f470000000000000000000000000000000000000000000000000000000000815250815260200160c860030b81525060016000600160000b815260200190815260200160002060008201518160000160006101000a81548160ff021916908360000b60ff1602179055506020820151816001019080519060200190620002299291906200025d565b5060408201518160020160006101000a81548163ffffffff021916908360030b63ffffffff16021790555090505062000372565b8280546200026b906200030d565b90600052602060002090601f0160209004810192826200028f5760008555620002db565b82601f10620002aa57805160ff1916838001178555620002db565b82800160010185558215620002db579182015b82811115620002da578251825591602001919060010190620002bd565b5b509050620002ea9190620002ee565b5090565b5b8082111562000309576000816000905550600101620002ef565b5090565b600060028204905060018216806200032657607f821691505b602082108114156200033d576200033c62000343565b5b50919050565b7f4e487b7100000000000000000000000000000000000000000000000000000000600052602260045260246000fd5b610d9c80620003826000396000f3fe60806040526004361061007b5760003560e01c80637452a7ae1161004e5780637452a7ae1461012f5780638da5cb5b1461015a578063c1054b1114610185578063d0e30db0146101b05761007b565b8063501ee1b81461008057806365f0155d146100bf578063688b3631146100e85780636c71164f14610104575b600080fd5b34801561008c57600080fd5b506100a760048036038101906100a2919061080d565b6101ba565b6040516100b693929190610a9b565b60405180910390f35b3480156100cb57600080fd5b506100e660048036038101906100e19190610872565b610286565b005b61010260048036038101906100fd9190610836565b610312565b005b34801561011057600080fd5b50610119610694565b6040516101269190610a80565b60405180910390f35b34801561013b57600080fd5b506101446106a7565b6040516101519190610a80565b60405180910390f35b34801561016657600080fd5b5061016f6106ba565b60405161017c9190610a65565b60405180910390f35b34801561019157600080fd5b5061019a6106de565b6040516101a79190610b73565b60405180910390f35b6101b86106e6565b005b60016020528060005260406000206000915090508060000160009054906101000a900460000b908060010180546101f090610c53565b80601f016020809104026020016040519081016040528092919081815260200182805461021c90610c53565b80156102695780601f1061023e57610100808354040283529160200191610269565b820191906000526020600020905b81548152906001019060200180831161024c57829003601f168201915b5050505050908060020160009054906101000a900460030b905083565b60008054906101000a900473ffffffffffffffffffffffffffffffffffffffff1673ffffffffffffffffffffffffffffffffffffffff16816040516102ca90610a50565b60006040518083038185875af1925050503d8060008114610307576040519150601f19603f3d011682016040523d82523d6000602084013e61030c565b606091505b50505050565b60008054906101000a900473ffffffffffffffffffffffffffffffffffffffff1673ffffffffffffffffffffffffffffffffffffffff168173ffffffffffffffffffffffffffffffffffffffff1614156103a1576040517f08c379a000000000000000000000000000000000000000000000000000000000815260040161039890610b33565b60405180910390fd5b60008260000b14156104df576000601481819054906101000a900460030b809291906103cc90610c85565b91906101000a81548163ffffffff021916908360030b63ffffffff1602179055505060405180606001604052808360000b81526020016040518060400160405280600381526020017f43415400000000000000000000000000000000000000000000000000000000008152508152602001600060149054906101000a900460030b60030b815250600160008460000b60000b815260200190815260200160002060008201518160000160006101000a81548160ff021916908360000b60ff16021790555060208201518160010190805190602001906104ac92919061072b565b5060408201518160020160006101000a81548163ffffffff021916908360030b63ffffffff16021790555090505061060d565b6000601881819054906101000a900460030b809291906104fe90610c85565b91906101000a81548163ffffffff021916908360030b63ffffffff1602179055505060405180606001604052808360000b81526020016040518060400160405280600381526020017f444f4700000000000000000000000000000000000000000000000000000000008152508152602001600060189054906101000a900460030b60030b815250600160008460000b60000b815260200190815260200160002060008201518160000160006101000a81548160ff021916908360000b60ff16021790555060208201518160010190805190602001906105de92919061072b565b5060408201518160020160006101000a81548163ffffffff021916908360030b63ffffffff1602179055509050505b7f235cc4e954fb1b8e26c7ad89f2762c77568f28129fe5ceecdfca5216488f57e482600160008560000b60000b8152602001908152602001600020600101600160008660000b60000b815260200190815260200160002060020160009054906101000a900460030b8442604051610688959493929190610ad9565b60405180910390a15050565b600060189054906101000a900460030b81565b600060149054906101000a900460030b81565b60008054906101000a900473ffffffffffffffffffffffffffffffffffffffff1681565b600047905090565b60003411610729576040517f08c379a000000000000000000000000000000000000000000000000000000000815260040161072090610b53565b60405180910390fd5b565b82805461073790610c53565b90600052602060002090601f01602090048101928261075957600085556107a0565b82601f1061077257805160ff19168380011785556107a0565b828001600101855582156107a0579182015b8281111561079f578251825591602001919060010190610784565b5b5090506107ad91906107b1565b5090565b5b808211156107ca5760008160009055506001016107b2565b5090565b6000813590506107dd81610d21565b92915050565b6000813590506107f281610d38565b92915050565b60008135905061080781610d4f565b92915050565b60006020828403121561081f57600080fd5b600061082d848285016107e3565b91505092915050565b6000806040838503121561084957600080fd5b6000610857858286016107e3565b9250506020610868858286016107ce565b9150509250929050565b60006020828403121561088457600080fd5b6000610892848285016107f8565b91505092915050565b6108a481610bca565b82525050565b6108b381610bdc565b82525050565b6108c281610be9565b82525050565b60006108d382610ba3565b6108dd8185610bb9565b93506108ed818560208601610c20565b6108f681610d10565b840191505092915050565b6000815461090e81610c53565b6109188186610bb9565b94506001821660008114610933576001811461094557610978565b60ff1983168652602086019350610978565b61094e85610b8e565b60005b8381101561097057815481890152600182019150602081019050610951565b808801955050505b50505092915050565b600061098e603283610bb9565b91507f766f746572206163636f756e742073686f756c64206e6f742073616d6520617360008301527f20436f6d6d6974746565206163636f756e7400000000000000000000000000006020830152604082019050919050565b60006109f4601b83610bb9565b91507f6572726f72202d206d7573742073656e642076616c7565203e203000000000006000830152602082019050919050565b6000610a34600083610bae565b9150600082019050919050565b610a4a81610c16565b82525050565b6000610a5b82610a27565b9150819050919050565b6000602082019050610a7a600083018461089b565b92915050565b6000602082019050610a9560008301846108aa565b92915050565b6000606082019050610ab060008301866108b9565b8181036020830152610ac281856108c8565b9050610ad160408301846108aa565b949350505050565b600060a082019050610aee60008301886108b9565b8181036020830152610b008187610901565b9050610b0f60408301866108aa565b610b1c606083018561089b565b610b296080830184610a41565b9695505050505050565b60006020820190508181036000830152610b4c81610981565b9050919050565b60006020820190508181036000830152610b6c816109e7565b9050919050565b6000602082019050610b886000830184610a41565b92915050565b60008190508160005260206000209050919050565b600081519050919050565b600081905092915050565b600082825260208201905092915050565b6000610bd582610bf6565b9050919050565b60008160030b9050919050565b60008160000b9050919050565b600073ffffffffffffffffffffffffffffffffffffffff82169050919050565b6000819050919050565b60005b83811015610c3e578082015181840152602081019050610c23565b83811115610c4d576000848401525b50505050565b60006002820490506001821680610c6b57607f821691505b60208210811415610c7f57610c7e610ce1565b5b50919050565b6000610c9082610bdc565b9150637fffffff821415610ca757610ca6610cb2565b5b600182019050919050565b7f4e487b7100000000000000000000000000000000000000000000000000000000600052601160045260246000fd5b7f4e487b7100000000000000000000000000000000000000000000000000000000600052602260045260246000fd5b6000601f19601f8301169050919050565b610d2a81610bca565b8114610d3557600080fd5b50565b610d4181610be9565b8114610d4c57600080fd5b50565b610d5881610c16565b8114610d6357600080fd5b5056fea26469706673582212201a5d0fac47c69281435ce2dfd6a91b8ae42a9a6383c27621d1cca753133c6a9c64736f6c63430008000033",
  "immutableReferences": {},
  "source": "// SPDX-License-Identifier: GPL-3.0\npragma solidity >=0.5.0 <0.9.0;\ncontract Paidvoter {\n\n    //string public name;\n    //address payable public owner;\n    address public owner;\n    int32 public voteCountCandidate1 = 0;\n    int32 public voteCountCandidate2 = 10;\n    mapping(int8 => Candidate) public candidates;\n\n    struct Candidate {\n        int8 id;\n        string name;\n        int32 votenumber;\n    }\n\n    event VoteCandidate(\n        int8 id,\n        string name,\n        int32 votenumber,\n        address votepaidbyaddress,\n        uint votedate\n\n    );\n    //address payable owner\n\n    enum CandidateVoting{\n        CAT , DOG\n    }\n\n    constructor()\n     {\n        //owner= payable(msg.sender);\n        owner=msg.sender;\n        //The account of Ballot Committee\n        //owner=payable(0x5B38Da6a701c568545dCfcB03FcB875f56beddC4);\n        //owner=payable(0xd6d2AC526CE7d8B307016E085fdFb4c40d69F48C);\n        \n        candidates[0] = Candidate(0, \"CAT\", 0);\n        candidates[1]= Candidate(1, \"DOG\", 200);   \n     }\n\n    function purchaseVoteCandidate(int8 _id,address _voter) payable public{\n\n        // Require that the voter  is not the maker\n        require(_voter != owner,\"voter account should not same as Committee account\");\n\n\n        if (_id==0) //CandidateVoting.CAT\n        {\n            voteCountCandidate1++;\n            candidates[_id]=Candidate(_id,\"CAT\",voteCountCandidate1);\n        } else\n        {\n            voteCountCandidate2++;\n            candidates[_id]=Candidate(_id,\"DOG\",voteCountCandidate2);\n        }\n\n        // Transfer to SMART_CONTRACT\n        //(bool success,) =owner.call{value: 1000}(\"ERROR\");\n        //require(success,\"failed transfer from Voter to Commitee (smart contract)\");\n        \n        // Trigger an event for web3js information\n        emit VoteCandidate(_id,candidates[_id].name,candidates[_id].votenumber,_voter,block.timestamp);\n\n    }\n\n         //Helper function for local testing in remix//\n         //function to check balance in SMART_CONTRACT\n         function getBalanceSmartContract () public view returns(uint)\n         {\n            return address(this).balance;\n         }\n         //function to deposit to SMART_CONTRACT\n         function deposit () public payable {\n            //require greater than 0\n            require(msg.value>0,\"error - must send value > 0\");\n        }\n        //function widthraw back from SMART_CONTRACT to owner\n        function widthraw (uint widthrawAmount) public {\n            owner.call{value: widthrawAmount}(\"\");\n        }\n\n}\n",
  "sourcePath": "/Users/coder.ch/02.Project/Blockchain-playground/05.Paid-voter-eth/contracts/Paidvoter.sol",
  "compiler": {
    "name": "solc",
    "version": "0.8.0+commit.c7dfd78e.Emscripten.clang"
  },
  "schemaVersion": "3.4.2",
  "updatedAt": "2021-07-26T14:25:11.137Z",
  "networkType": "ethereum",
  "devdoc": {
    "kind": "dev",
    "methods": {},
    "version": 1
  },
  "userdoc": {
    "kind": "user",
    "methods": {},
    "version": 1
  }
}